{
  "address": "0xe83add0e4275cf44E13bDab013749d1A72e4521E",
  "abi": [
    {
      "inputs": [
        {
          "internalType": "address",
          "name": "priceFeedAddress",
          "type": "address"
        }
      ],
      "stateMutability": "nonpayable",
      "type": "constructor"
    },
    {
      "inputs": [],
      "name": "UnAuthorized",
      "type": "error"
    },
    {
      "stateMutability": "payable",
      "type": "fallback"
    },
    {
      "inputs": [],
      "name": "fund",
      "outputs": [],
      "stateMutability": "payable",
      "type": "function"
    },
    {
      "inputs": [
        {
          "internalType": "address",
          "name": "",
          "type": "address"
        }
      ],
      "name": "funderToAmountFunded",
      "outputs": [
        {
          "internalType": "uint256",
          "name": "",
          "type": "uint256"
        }
      ],
      "stateMutability": "view",
      "type": "function"
    },
    {
      "inputs": [
        {
          "internalType": "uint256",
          "name": "",
          "type": "uint256"
        }
      ],
      "name": "fundersList",
      "outputs": [
        {
          "internalType": "address",
          "name": "",
          "type": "address"
        }
      ],
      "stateMutability": "view",
      "type": "function"
    },
    {
      "inputs": [],
      "name": "priceFeed",
      "outputs": [
        {
          "internalType": "contract AggregatorV3Interface",
          "name": "",
          "type": "address"
        }
      ],
      "stateMutability": "view",
      "type": "function"
    },
    {
      "inputs": [],
      "name": "withdraw",
      "outputs": [],
      "stateMutability": "nonpayable",
      "type": "function"
    },
    {
      "stateMutability": "payable",
      "type": "receive"
    }
  ],
  "transactionHash": "0x1311d77a0148b8a3f04a3693724b15a85733c4b5eeb45e34ea17a376897b92b8",
  "args": [
    "0x694AA1769357215DE4FAC081bf1f309aDC325306"
  ],
  "numDeployments": 2,
  "solcInputHash": "d69588de2d8717ab7bf5baf720c19117",
  "bytecode": "0x60a060405234801561001057600080fd5b50604051610dd3380380610dd383398181016040528101906100329190610110565b3373ffffffffffffffffffffffffffffffffffffffff1660808173ffffffffffffffffffffffffffffffffffffffff168152505080600260006101000a81548173ffffffffffffffffffffffffffffffffffffffff021916908373ffffffffffffffffffffffffffffffffffffffff1602179055505061013d565b600080fd5b600073ffffffffffffffffffffffffffffffffffffffff82169050919050565b60006100dd826100b2565b9050919050565b6100ed816100d2565b81146100f857600080fd5b50565b60008151905061010a816100e4565b92915050565b600060208284031215610126576101256100ad565b5b6000610134848285016100fb565b91505092915050565b608051610c7b61015860003960006102570152610c7b6000f3fe60806040526004361061004e5760003560e01c80633ccfd60b1461006757806347ff62c61461007e578063741bef1a146100bb578063939f05a3146100e6578063b60d4288146101235761005d565b3661005d5761005b61012d565b005b61006561012d565b005b34801561007357600080fd5b5061007c610255565b005b34801561008a57600080fd5b506100a560048036038101906100a091906106bb565b61048f565b6040516100b29190610729565b60405180910390f35b3480156100c757600080fd5b506100d06104ce565b6040516100dd91906107a3565b60405180910390f35b3480156100f257600080fd5b5061010d600480360381019061010891906107ea565b6104f4565b60405161011a9190610826565b60405180910390f35b61012b61012d565b005b6802b5e3af16b188000061016c600260009054906101000a900473ffffffffffffffffffffffffffffffffffffffff163461050c90919063ffffffff16565b10156101ad576040517f08c379a00000000000000000000000000000000000000000000000000000000081526004016101a4906108c4565b60405180910390fd5b346000803373ffffffffffffffffffffffffffffffffffffffff1673ffffffffffffffffffffffffffffffffffffffff168152602001908152602001600020819055506001339080600181540180825580915050600190039060005260206000200160009091909190916101000a81548173ffffffffffffffffffffffffffffffffffffffff021916908373ffffffffffffffffffffffffffffffffffffffff160217905550565b7f000000000000000000000000000000000000000000000000000000000000000073ffffffffffffffffffffffffffffffffffffffff163373ffffffffffffffffffffffffffffffffffffffff16146102da576040517fbe24598300000000000000000000000000000000000000000000000000000000815260040160405180910390fd5b60005b60018054905081101561037f57600060018281548110610300576102ff6108e4565b5b9060005260206000200160009054906101000a900473ffffffffffffffffffffffffffffffffffffffff16905060008060008373ffffffffffffffffffffffffffffffffffffffff1673ffffffffffffffffffffffffffffffffffffffff168152602001908152602001600020819055505080806001019150506102dd565b50600067ffffffffffffffff81111561039b5761039a610913565b5b6040519080825280602002602001820160405280156103c95781602001602082028036833780820191505090505b50600190805190602001906103df9291906105d9565b5060003373ffffffffffffffffffffffffffffffffffffffff164760405161040690610973565b60006040518083038185875af1925050503d8060008114610443576040519150601f19603f3d011682016040523d82523d6000602084013e610448565b606091505b505090508061048c576040517f08c379a0000000000000000000000000000000000000000000000000000000008152600401610483906109d4565b60405180910390fd5b50565b6001818154811061049f57600080fd5b906000526020600020016000915054906101000a900473ffffffffffffffffffffffffffffffffffffffff1681565b600260009054906101000a900473ffffffffffffffffffffffffffffffffffffffff1681565b60006020528060005260406000206000915090505481565b60008061051883610548565b90506000670de0b6b3a764000085836105319190610a23565b61053b9190610a94565b9050809250505092915050565b6000808273ffffffffffffffffffffffffffffffffffffffff1663feaf968c6040518163ffffffff1660e01b815260040160a060405180830381865afa158015610596573d6000803e3d6000fd5b505050506040513d601f19601f820116820180604052508101906105ba9190610b52565b5050509150506402540be400816105d19190610bcd565b915050919050565b828054828255906000526020600020908101928215610652579160200282015b828111156106515782518260006101000a81548173ffffffffffffffffffffffffffffffffffffffff021916908373ffffffffffffffffffffffffffffffffffffffff160217905550916020019190600101906105f9565b5b50905061065f9190610663565b5090565b5b8082111561067c576000816000905550600101610664565b5090565b600080fd5b6000819050919050565b61069881610685565b81146106a357600080fd5b50565b6000813590506106b58161068f565b92915050565b6000602082840312156106d1576106d0610680565b5b60006106df848285016106a6565b91505092915050565b600073ffffffffffffffffffffffffffffffffffffffff82169050919050565b6000610713826106e8565b9050919050565b61072381610708565b82525050565b600060208201905061073e600083018461071a565b92915050565b6000819050919050565b600061076961076461075f846106e8565b610744565b6106e8565b9050919050565b600061077b8261074e565b9050919050565b600061078d82610770565b9050919050565b61079d81610782565b82525050565b60006020820190506107b86000830184610794565b92915050565b6107c781610708565b81146107d257600080fd5b50565b6000813590506107e4816107be565b92915050565b600060208284031215610800576107ff610680565b5b600061080e848285016107d5565b91505092915050565b61082081610685565b82525050565b600060208201905061083b6000830184610817565b92915050565b600082825260208201905092915050565b7f536f72727920746865206d696e696d756d20616d6f756e74206973203530205560008201527f5344000000000000000000000000000000000000000000000000000000000000602082015250565b60006108ae602283610841565b91506108b982610852565b604082019050919050565b600060208201905081810360008301526108dd816108a1565b9050919050565b7f4e487b7100000000000000000000000000000000000000000000000000000000600052603260045260246000fd5b7f4e487b7100000000000000000000000000000000000000000000000000000000600052604160045260246000fd5b600081905092915050565b50565b600061095d600083610942565b91506109688261094d565b600082019050919050565b600061097e82610950565b9150819050919050565b7f556e61626c6520746f2073656e6420746f206164647265737300000000000000600082015250565b60006109be601983610841565b91506109c982610988565b602082019050919050565b600060208201905081810360008301526109ed816109b1565b9050919050565b7f4e487b7100000000000000000000000000000000000000000000000000000000600052601160045260246000fd5b6000610a2e82610685565b9150610a3983610685565b9250828202610a4781610685565b91508282048414831517610a5e57610a5d6109f4565b5b5092915050565b7f4e487b7100000000000000000000000000000000000000000000000000000000600052601260045260246000fd5b6000610a9f82610685565b9150610aaa83610685565b925082610aba57610ab9610a65565b5b828204905092915050565b600069ffffffffffffffffffff82169050919050565b610ae481610ac5565b8114610aef57600080fd5b50565b600081519050610b0181610adb565b92915050565b6000819050919050565b610b1a81610b07565b8114610b2557600080fd5b50565b600081519050610b3781610b11565b92915050565b600081519050610b4c8161068f565b92915050565b600080600080600060a08688031215610b6e57610b6d610680565b5b6000610b7c88828901610af2565b9550506020610b8d88828901610b28565b9450506040610b9e88828901610b3d565b9350506060610baf88828901610b3d565b9250506080610bc088828901610af2565b9150509295509295909350565b6000610bd882610b07565b9150610be383610b07565b9250828202610bf181610b07565b91507f80000000000000000000000000000000000000000000000000000000000000008414600084121615610c2957610c286109f4565b5b8282058414831517610c3e57610c3d6109f4565b5b509291505056fea2646970667358221220792a2209b44db24d09e4418f7095abae742ebe243223a5dd929bde890f6b33a864736f6c634300081c0033",
  "devdoc": {
    "kind": "dev",
    "methods": {},
    "version": 1
  },
  "userdoc": {
    "kind": "user",
    "methods": {},
    "version": 1
  },
  "storageLayout": {
    "storage": [
      {
        "astId": 64,
        "contract": "contracts/Fundme.sol:Fundme",
        "label": "funderToAmountFunded",
        "offset": 0,
        "slot": "0",
        "type": "t_mapping(t_address,t_uint256)"
      },
      {
        "astId": 67,
        "contract": "contracts/Fundme.sol:Fundme",
        "label": "fundersList",
        "offset": 0,
        "slot": "1",
        "type": "t_array(t_address)dyn_storage"
      },
      {
        "astId": 70,
        "contract": "contracts/Fundme.sol:Fundme",
        "label": "priceFeed",
        "offset": 0,
        "slot": "2",
        "type": "t_contract(AggregatorV3Interface)45"
      }
    ],
    "types": {
      "t_address": {
        "encoding": "inplace",
        "label": "address",
        "numberOfBytes": "20"
      },
      "t_array(t_address)dyn_storage": {
        "base": "t_address",
        "encoding": "dynamic_array",
        "label": "address[]",
        "numberOfBytes": "32"
      },
      "t_contract(AggregatorV3Interface)45": {
        "encoding": "inplace",
        "label": "contract AggregatorV3Interface",
        "numberOfBytes": "20"
      },
      "t_mapping(t_address,t_uint256)": {
        "encoding": "mapping",
        "key": "t_address",
        "label": "mapping(address => uint256)",
        "numberOfBytes": "32",
        "value": "t_uint256"
      },
      "t_uint256": {
        "encoding": "inplace",
        "label": "uint256",
        "numberOfBytes": "32"
      }
    }
  }
}